S0220000464753455F4C565F436F6E74726F6C6C65725F6E616E6F43414E2E737265637C
S11300000C943E000C945B000C945B000C945B001D
S11300100C945B000C945B000C945B000C945B00F0
S11300200C945B000C945B000C945B000C945B00E0
S11300300C945B000C945B000C94F3050C945B0033
S11300400C945B000C9417010C945B000C945B0003
S11300500C945B000C945B000C945B000C945B00B0
S11300600C945B000C945B000C945B000C945B00A0
S11300700C9491020C945B000C945B0011241FBE41
S1130080CFEFD0E1DEBFCDBF11E0A0E0B1E0E4EA04
S1130090FDE002C005900D92AA30B107D9F721E026
S11300A0AAE0B1E001C01D92AD36B207E1F70E94AB
S11300B00F010C94D0060C940000F894A89584B712
S11300C0877F84BFE0E6F0E08081886180838FE0F1
S11300D08083808180688083808180648083789439
S11300E008950E945D0078940E94BF0210926601F8
S11300F010926701109268011092690110924E01EA
S113010010924F01109250011092510110925E0111
S113011010925F01109260011092610110924401EB
S11301201092450110924601109247011092490124
S11301301092480110925A0110925B0110925C01D6
S113014010925D0110926201109263011092640199
S113015010926501109256011092570110925801A5
S113016010925901109252011092530110925401AD
S113017010925501109240011092410110924201D7
S113018010924301109238011092390110923A01F1
S113019010923B0110923C0110923D0110923E01DD
S11301A010923F0110924A0110924B0110924C019F
S11301B010924D0110920A01EEE6F0E080818E7FEC
S11301C0808314BC15BC85B5826085BD85B581600E
S11301D085BD87EE86BD808181608083EFE6F0E097
S11301E080818E7F808310928000E1E8F0E01082AD
S11301F0808182608083EAE7F0E08081846080838C
S11302008081826080838081816080838081806836
S11302108083E8ECF0E080818068808308950E9408
S113022071000E94B502A8950E944D05FCCF1F9253
S11302300F920FB60F9211248F939F93AF93BF9396
S113024087EE86BD8091440190914501A0914601BD
S1130250B09147010196A11DB11D80934401909373
S11302604501A0934601B0934701809149018F5FF6
S113027080934901809148018F5F80934801809168
S11302805A0190915B01A0915C01B0915D010196CE
S1130290A11DB11D80935A0190935B01A0935C0151
S11302A0B0935D01809149018A30A8F08091620188
S11302B090916301A0916401B09165010196A11D23
S11302C0B11D8093620190936301A0936401B09384
S11302D065011092490180914801809152019091E9
S11302E05301A0915401B0915501892B8A2B8B2B7A
S11302F041F4109252011092530110925401109241
S113030055018091400190914101A0914201B09129
S11303104301892B8A2B8B2B41F4109240011092BC
S11303204101109242011092430180913801909151
S11303303901A0913A01B0913B01892B8A2B8B2B77
S113034041F4109238011092390110923A0110923E
S11303503B0180913C0190913D01A0913E01B091FF
S11303603F01892B8A2B8B2B41F410923C01109274
S11303703D0110923E0110923F0180914A019091FB
S11303804B01A0914C01B0914D01892B8A2B8B2BF1
S113039041F410924A0110924B0110924C011092B8
S11303A04D0180910A01816080930A0180915A0174
S11303B090915B01A0915C01B0915D018093660115
S11303C090936701A0936801B093690180910A0139
S11303D0826080930A018091620190916301A091EF
S11303E06401B091650180934E0190934F01A093F5
S11303F05001B093510180910A01846080930A01F5
S11304008091560190915701A0915801B0915901E2
S113041080935E0190935F01A0936001B0936101AA
S113042080910A01886080930A0180915201909121
S11304305301A0915401B09155010196A11DB11D24
S11304408093520190935301A0935401B0935501AA
S113045080910A01806180930A018091400190910A
S11304604101A0914201B09143010196A11DB11D2A
S11304708093400190934101A0934201B0934301C2
S113048080910A01806280930A01809138019091E1
S11304903901A0913A01B0913B010196A11DB11D12
S11304A08093380190933901A0933A01B0933B01B2
S11304B080910A01806480930A0180913C019091AB
S11304C03D01A0913E01B0913F010196A11DB11DD6
S11304D080933C0190933D01A0933E01B0933F0172
S11304E080910A01806880930A0180914A01909169
S11304F04B01A0914C01B0914D010196A11DB11D7C
S113050080934A0190934B01A0934C01B0934D0109
S1130510BF91AF919F918F910F900FBE0F901F903D
S113052018951F920F920FB60F9211242F933F9399
S11305304F935F936F937F938F939F93AF93BF93E7
S1130540EF93FF930E94D202FF91EF91BF91AF917D
S11305509F918F917F916F915F914F913F912F91D7
S11305600F900FBE0F901F90189560E070E0CB01C4
S11305700E947705409A81E080930B010895529A76
S1130580549A569A559A519A399A529A239A3F9A5A
S1130590249A259A509A269A389A229A3C9A3D98F7
S11305A05798089508958230C9F018F4813031F0D5
S11305B00895833019F1843089F1089570E08091B1
S11305C00F01681B710922E3269FC001279F900D2C
S11305D011249093140180931301089570E0809185
S11305E00F01681B710922E3269FC001279F900D0C
S11305F011249093140180931301089570E0809165
S11306000F01681B710922E3269FC001279F900DEB
S113061011249093140180931301089570E0809144
S11306200F01681B710922E3269FC001279F900DCB
S11306301124909314018093130108950F931F9331
S1130640CF93DF938091EE0085FF91C00E94C70590
S113065080911B01811134C080911C01811111C052
S113066080910B01811183C080910401882309F4D6
S11306707EC010920F0181E080930B01109204015F
S113068076C090910B01911172C09091040199234D
S113069009F46DC0982F92959F70990F692F660F7A
S11306A0660F690F8F70680FCBE1D1E0698381E039
S11306B00E94D302898180930F011092040157C0D4
S11306C0813059F580911C01882309F450C0909120
S11306D00B0191114CC090910401992309F447C076
S11306E0982F92959F70990F292F220F220F920F06
S11306F08F70890F0BE111E0F8018183CFE0D1E025
S11307006881681B81E00E94D3028881F80191818D
S1130710891B8883109204012AC0823041F580919C
S11307201C01882321F190910B01911120C090911B
S113073004019923E1F0982F92959F70990F292F26
S1130740220F220F920F8F70890F0BE111E0F80135
S11307508183CFE0D1E06881680F81E00E94D302F9
S11307609881F8018181890F888310920401DF91B7
S1130770CF911F910F910895813049F028F0823074
S113078049F0833051F00BC02A98449808C02A9A43
S1130790449805C02A98449A02C02A9A449A26B1D9
S11307A089B1807890E0880F991F25FF04C0892BB8
S11307B031F481E00895892B21F480E0089582E0EA
S11307C0089583E00895662381F0813041F028F094
S11307D0823039F0833039F008955C9A0895599A3B
S11307E008952B9A08952D9A0895813041F028F0A8
S11307F0823039F0833039F008955C98089559981F
S113080008952B9808952D980895662381F08130DA
S113081041F028F0823039F0833039F008955D9A40
S113082008955A9A08952C9A08952E9A089581301D
S113083041F028F0823039F0833039F008955D9822
S113084008955A9808952C9808952E98089566232B
S113085081F0813041F028F0823039F0833039F072
S113086008955E9A0895419A0895479A0895589A6A
S11308700895813041F028F0823039F0833039F026
S113088008955E9808954198089547980895589852
S113089008952F923F924F925F926F927F928F9220
S11308A09F92AF92BF92CF92DF92EF92FF920F93FB
S11308B01F93CF93DF93CBE0D1E00F2EF0E08F2E88
S11308C0F1E09F2EF02D0F2EFFE0EF2EF1E0FF2E32
S11308D0F02D0F2EF3E1CF2EF1E0DF2EF02D860167
S11308E0312C0F2EF3E26F2E712CF02D68942224FC
S11308F022F80F2EFDED4F2E55245A94F02D8881A9
S11309008230A1F018F4813031F030C08330D9F056
S1130910843031F12BC0832D0E94BC03811103C0AC
S113092082E0888323C083E0888320C0F801718239
S11309306082832D0E94BC038823C1F0F8011182D8
S11309401082288213C0F80151824082832D0E94B4
S1130950BC0381110BC0F80111821082288206C0E9
S11309608BEBF40180831882F70110822196FFEF4C
S11309708F1A9F0A8FEFE81AF80A0E5F1F4F3394FD
S1130980E4E03E12BCCF8091520190915301A091BA
S11309905401B09155010597A105B10508F46AC049
S11309A080910501811109C0C0E052C02196F2E096
S11309B0CF0ED11C0F5F1F4F04C001E010E0C0E058
S11309C0D0E0F60180819181181619069CF460E04C
S11309D08C2F0E94050460E08C2F0E94270461E0A4
S11309E08C2F0E94E303F60180819181019791830A
S11309F080831FC099239CF460E08C2F0E9405041F
S1130A0061E08C2F0E94270461E08C2F0E94E30395
S1130A10F601808191810196918380830AC061E00F
S1130A208C2F0E940504209721F481E08093040117
S1130A30BDCF043011050CF4B9CF109252011092BD
S1130A40530110925401109255011092050112C0E5
S1130A5060E08C2F0E94E303CF5FC430C9F710928B
S1130A60520110925301109254011092550181E0E9
S1130A7080930501DF91CF911F910F91FF90EF902B
S1130A80DF90CF90BF90AF909F908F907F906F90AA
S1130A905F904F903F902F900895A8950E941E0359
S1130AA00E94490408950F931F93E0EFF0E0108231
S1130AB01182128213820081118122813381AB0160
S1130AC0BC01032E35E1440F551F661F771F3A956D
S1130AD0D1F7302DDB01CA01802B912BA22BB32B34
S1130AE080839183A283B3831F910F910895CF9341
S1130AF0DF936093230170932401809325019093E5
S1130B00260181E08093D80080E0CDEED0E0AFEE06
S1130B10B0E0EEEEF0E0982F9295907F98831C92CF
S1130B2010828F5F8630B9F7E8EDF0E080811082A3
S1130B30808182608083EDEEF0E010828081877F87
S1130B40808388E88093EF001092E50082E0809330
S1130B50E2008CE08093E30087E38093E4008FEF6E
S1130B609FEFDC018093F4009093F500A093F600CE
S1130B70B093F700609123017091240180912501C5
S1130B80909126010E945305DF91CF9108958091A1
S1130B90EF008F7080930601EDEEF0E080818E7F90
S1130BA0808380818D7F808380818B7F808320916F
S1130BB0060112166CF4EBE1F1E0215030E0245E02
S1130BC03E4FAAEFB0E08C918193E217F307D9F777
S1130BD080E88093EF001092FA00EEEEF0E080815E
S1130BE08F7D808308951F920F920FB60F92112468
S1130BF02F933F938F939F9388E8809384008AEF89
S1130C008093850080910701882321F05C9A1092DB
S1130C10070104C05C9881E08093070180916B0117
S1130C2090916C01019690936C0180936B012091DB
S1130C306B0130916C018091080190910901281792
S1130C4039072CF18091270180FD5E9A809127015C
S1130C5081FD5F9A8091270182FD2A9A8091270164
S1130C6083FD449A8091270184FD459A8091270150
S1130C7085FD469A8091270186FD2C9A8091270153
S1130C8088230CF4479A10926C0110926B018091A6
S1130C90270180FF0CC02091280130912901809107
S1130CA06B0190916C01821793070CF05E98809110
S1130CB0270181FF0CC020912A0130912B018091E2
S1130CC06B0190916C01821793070CF05F988091EF
S1130CD0270182FF0CC020912C0130912D018091BD
S1130CE06B0190916C01821793070CF02A98809104
S1130CF0270183FF0CC020912E0130912F01809198
S1130D006B0190916C01821793070CF044988091C9
S1130D10270184FF0CC02091300130913101809172
S1130D206B0190916C01821793070CF045988091A8
S1130D30270185FF0CC0209132013091330180914D
S1130D406B0190916C01821793070CF04698809187
S1130D50270186FF0CC02091340130913501809128
S1130D606B0190916C01821793070CF02C98809181
S1130D702701882364F42091360130913701809152
S1130D806B0190916C01821793070CF047989F9127
S1130D908F913F912F910F900FBE0F901F90189538
S1070DA0F894FFCFF1
S10D0DA4AAAAAAAA01010101400055
S9030000FC
