S01D00006E616E6F43414E5F4C565F436F6E74726F6C6C65722E7372656305
S11300000C943E000C945B000C945B000C945B001D
S11300100C945B000C945B000C945B000C945B00F0
S11300200C945B000C945B000C945B000C945B00E0
S11300300C945B000C945B000C9477050C945B00AF
S11300400C945B000C9417010C945B000C945B0003
S11300500C945B000C945B000C945B000C945B00B0
S11300600C945B000C945B000C945B000C945B00A0
S11300700C9491020C945B000C945B0011241FBE41
S1130080CFEFD0E1DEBFCDBF11E0A0E0B1E0EEE004
S1130090FFE002C005900D92AA30B107D9F721E024
S11300A0AAE0B1E001C01D92AD36B207E1F70E94AB
S11300B00F010C9485070C940000F894A89584B75C
S11300C0877F84BFE0E6F0E08081886180838FE0F1
S11300D08083808180688083808180648083789439
S11300E008950E945D0078940E94BC0210926601FB
S11300F010926701109268011092690110924E01EA
S113010010924F01109250011092510110925E0111
S113011010925F01109260011092610110924401EB
S11301201092450110924601109247011092490124
S11301301092480110925A0110925B0110925C01D6
S113014010925D0110926201109263011092640199
S113015010926501109256011092570110925801A5
S113016010925901109252011092530110925401AD
S113017010925501109240011092410110924201D7
S113018010924301109238011092390110923A01F1
S113019010923B0110923C0110923D0110923E01DD
S11301A010923F0110924A0110924B0110924C019F
S11301B010924D0110920A01EEE6F0E080818E7FEC
S11301C0808314BC15BC85B5826085BD85B581600E
S11301D085BD87EE86BD808181608083EFE6F0E097
S11301E080818E7F808310928000E1E8F0E01082AD
S11301F0808182608083EAE7F0E08081846080838C
S11302008081826080838081816080838081806836
S11302108083E8ECF0E080818068808308950E9408
S113022071000E94B502A8950E94D104FCCF1F92D0
S11302300F920FB60F9211248F939F93AF93BF9396
S113024087EE86BD8091440190914501A0914601BD
S1130250B09147010196A11DB11D80934401909373
S11302604501A0934601B0934701809149018F5FF6
S113027080934901809148018F5F80934801809168
S11302805A0190915B01A0915C01B0915D010196CE
S1130290A11DB11D80935A0190935B01A0935C0151
S11302A0B0935D01809149018A30A8F08091620188
S11302B090916301A0916401B09165010196A11D23
S11302C0B11D8093620190936301A0936401B09384
S11302D065011092490180914801809152019091E9
S11302E05301A0915401B0915501892B8A2B8B2B7A
S11302F041F4109252011092530110925401109241
S113030055018091400190914101A0914201B09129
S11303104301892B8A2B8B2B41F4109240011092BC
S11303204101109242011092430180913801909151
S11303303901A0913A01B0913B01892B8A2B8B2B77
S113034041F4109238011092390110923A0110923E
S11303503B0180913C0190913D01A0913E01B091FF
S11303603F01892B8A2B8B2B41F410923C01109274
S11303703D0110923E0110923F0180914A019091FB
S11303804B01A0914C01B0914D01892B8A2B8B2BF1
S113039041F410924A0110924B0110924C011092B8
S11303A04D0180910A01816080930A0180915A0174
S11303B090915B01A0915C01B0915D018093660115
S11303C090936701A0936801B093690180910A0139
S11303D0826080930A018091620190916301A091EF
S11303E06401B091650180934E0190934F01A093F5
S11303F05001B093510180910A01846080930A01F5
S11304008091560190915701A0915801B0915901E2
S113041080935E0190935F01A0936001B0936101AA
S113042080910A01886080930A0180915201909121
S11304305301A0915401B09155010196A11DB11D24
S11304408093520190935301A0935401B0935501AA
S113045080910A01806180930A018091400190910A
S11304604101A0914201B09143010196A11DB11D2A
S11304708093400190934101A0934201B0934301C2
S113048080910A01806280930A01809138019091E1
S11304903901A0913A01B0913B010196A11DB11D12
S11304A08093380190933901A0933A01B0933B01B2
S11304B080910A01806480930A0180913C019091AB
S11304C03D01A0913E01B0913F010196A11DB11DD6
S11304D080933C0190933D01A0933E01B0933F0172
S11304E080910A01806880930A0180914A01909169
S11304F04B01A0914C01B0914D010196A11DB11D7C
S113050080934A0190934B01A0934C01B0934D0109
S1130510BF91AF919F918F910F900FBE0F901F903D
S113052018951F920F920FB60F9211242F933F9399
S11305304F935F936F937F938F939F93AF93BF93E7
S1130540EF93FF930E94CF02FF91EF91BF91AF9180
S11305509F918F917F916F915F914F913F912F91D7
S11305600F900FBE0F901F90189560E070E0CB01C4
S11305700E94FB04409A0895529A549A569A559AA6
S1130580519A399A529A239A3F9A249A259A509AC0
S1130590269A389A229A3C9A3D9857980895089535
S11305A0823011F118F4813039F008958330A1F1CB
S11305B0843009F449C0089570E080910F01681BEC
S11305C07109072E000C880B990B0E948C0624EEEF
S11305D038E34EE052E40E94F0060E945406709301
S11305E0140160931301089570E080911001681B59
S11305F07109072E000C880B990B0E948C0624EEBF
S113060038E34EE052E40E94F0060E9454067093D0
S1130610160160931501089570E080911101681B23
S11306207109072E000C880B990B0E948C0624EE8E
S113063038E34EE052E40E94F0060E9454067093A0
S1130640180160931701089570E080911201681BEE
S11306507109072E000C880B990B0E948C0624EE5E
S113066038E34EE052E40E94F0060E945406709370
S11306701A016093190108958091EE0085FF13C05B
S11306800E944B05EBE1F1E06081818168130BC0AE
S113069080911D01681307C081E00E94D0028091FF
S11306A01B0180930F010895813049F028F08230B6
S11306B049F0833051F00BC02A98449808C02A9A14
S11306C0449805C02A98449A02C02A9A449A26B1AA
S11306D089B1807890E0880F991F25FF04C0892B89
S11306E031F481E00895892B21F480E0089582E0BB
S11306F0089583E00895662381F0813041F028F065
S1130700823039F0833039F008955C9A0895599A0B
S113071008952B9A08952D9A0895813041F028F078
S1130720823039F0833039F008955C9808955998EF
S113073008952B9808952D980895662381F08130AB
S113074041F028F0823039F0833039F008955D9A11
S113075008955A9A08952C9A08952E9A08958130EE
S113076041F028F0823039F0833039F008955D98F3
S113077008955A9808952C9808952E9808956623FC
S113078081F0813041F028F0823039F0833039F043
S113079008955E9A0895419A0895479A0895589A3B
S11307A00895813041F028F0823039F0833039F0F7
S11307B008955E9808954198089547980895589823
S11307C008952F923F924F925F926F927F928F92F1
S11307D09F92AF92BF92CF92DF92EF92FF920F93CC
S11307E01F93CF93DF93CBE0D1E00F2EF0E08F2E59
S11307F0F1E09F2EF02D0F2EF3E1EF2EF1E0FF2E0E
S1130800F02D8701512C0F2EF3E2AF2EB12CF02DD9
S11308106894332432F80F2EFDED6F2E77247A94EA
S1130820F02D0F2EFBEB4F2EF02D0F2EF3E02F2E7D
S1130830F02D8881823099F018F4813031F02BC08A
S11308408330D1F0843029F126C0852D0E945403D1
S1130850811103C082E088831EC028821CC0F80175
S1130860B182A082852D0E9454038823A1F0F8014F
S11308701182108238820FC0F80171826082852D46
S11308800E945403811107C0F8011182108238823A
S113089002C0F40140822196FFEF8F1A9F0A0E5F77
S11308A01F4F539484E05812C4CF80915201909109
S11308B05301A0915401B09155010597A105B105CB
S11308C008F45CC080910401882309F444C0C0E0AA
S11308D0F70180819181181619069CF460E08C2F31
S11308E00E949D0361E08C2F0E94BF0361E08C2F66
S11308F00E947B03F701808191810197918380831A
S113090019C099239CF460E08C2F0E949D0360E041
S11309108C2F0E94BF0361E08C2F0E947B03F701A0
S11309208081918101969183808304C061E08C2F42
S11309300E949D03F2E0EF0EF11CCF5FC43041F63C
S113094010925201109253011092540110925501C9
S11309501092040113C0C0E060E08C2F0E947B035E
S1130960CF5FC430C9F71092520110925301109214
S113097054011092550181E080930401DF91CF91DD
S11309801F910F91FF90EF90DF90CF90BF90AF90A9
S11309909F908F907F906F905F904F903F902F909B
S11309A00895A8950E943C030E94E10308950F93C3
S11309B01F93E0EFF0E01082118212821382008113
S11309C0118122813381AB01BC01032E35E1440F37
S11309D0551F661F771F3A95D1F7302DDB01CA01E9
S11309E0802B912BA22BB32B80839183A283B3837F
S11309F01F910F910895CF93DF9360932301709318
S1130A002401809325019093260181E08093D800EE
S1130A1080E0CDEED0E0AFEEB0E0EEEEF0E0982F67
S1130A209295907F98831C9210828F5F8630B9F7DD
S1130A30E8EDF0E080811082808182608083EDEEB9
S1130A40F0E010828081877F808388E88093EF00C4
S1130A501092E50082E08093E2008CE08093E30052
S1130A6087E38093E4008FEF9FEFDC018093F40031
S1130A709093F500A093F600B093F70060912301E2
S1130A807091240180912501909126010E94D70440
S1130A90DF91CF9108958091EF008F7080930501CD
S1130AA0EDEEF0E080818E7F808380818D7F808376
S1130AB080818B7F80832091050112166CF4EBE119
S1130AC0F1E0215030E0245E3E4FAAEFB0E08C917B
S1130AD08193E217F307D9F780E88093EF0010922F
S1130AE0FA00EEEEF0E080818F7D808308951F92FE
S1130AF00F920FB60F9211242F933F938F939F93CE
S1130B0088E8809384008AEF8093850080910601B1
S1130B10882321F05C9A1092060104C05C9881E05D
S1130B208093060180916B0190916C0101969093E2
S1130B306C0180936B0120916B0130916C01809169
S1130B40070190910801281739072CF1809127019A
S1130B5080FD5E9A8091270181FD5F9A8091270133
S1130B6082FD2A9A8091270183FD449A809127016E
S1130B7084FD459A8091270185FD469A809127013D
S1130B8086FD2C9A8091270188230CF4479A1092B1
S1130B906C0110926B018091270180FF0CC02091A1
S1130BA028013091290180916B0190916C01821789
S1130BB093070CF05E988091270181FF0CC020916F
S1130BC02A0130912B0180916B0190916C01821765
S1130BD093070CF05F988091270182FF0CC020914D
S1130BE02C0130912D0180916B0190916C01821741
S1130BF093070CF02A988091270183FF0CC0209161
S1130C002E0130912F0180916B0190916C0182171C
S1130C1093070CF044988091270184FF0CC0209125
S1130C2030013091310180916B0190916C018217F8
S1130C3093070CF045988091270185FF0CC0209103
S1130C4032013091330180916B0190916C018217D4
S1130C5093070CF046988091270186FF0CC02091E1
S1130C6034013091350180916B0190916C018217B0
S1130C7093070CF02C9880912701882364F4209129
S1130C8036013091370180916B0190916C0182178C
S1130C9093070CF047989F918F913F912F910F905C
S1130CA00FBE0F901F9018950E945B066894B111B7
S1130CB00C94EA0608950E94CF0688F09F5798F096
S1130CC0B92F9927B751B0F0E1F0660F771F881F4D
S1130CD0991F1AF0BA95C9F714C0B13091F00E9467
S1130CE0E906B1E008950C94E906672F782F882768
S1130CF0B85F39F0B93FCCF3869577956795B3958E
S1130D00D9F73EF490958095709561957F4F8F4FFC
S1130D109F4F0895E89409C097FB3EF49095809501
S1130D20709561957F4F8F4F9F4F9923A9F0F92FAD
S1130D3096E9BB279395F695879577956795B7952B
S1130D40F111F8CFFAF4BB0F11F460FF1BC06F5F11
S1130D507F4F8F4F9F4F16C0882311F096E911C023
S1130D60772321F09EE8872F762F05C0662371F044
S1130D7096E8862F70E060E02AF09A95660F771F58
S1130D80881FDAF7880F9695879597F9089557FD88
S1130D909058440F551F59F05F3F71F04795880FE5
S1130DA097FB991F61F09F3F79F08795089512167C
S1130DB013061406551FF2CF4695F1DF08C0161628
S1130DC017061806991FF1CF8695710561050894D9
S1130DD00895E894BB2766277727CB0197F90895F0
S1130DE00E9403070C9474070E94660738F00E945F
S1130DF06D0720F0952311F00C945D070C946307A4
S1130E0011240C94EA060E94C70670F3959FC1F35F
S1130E10950F50E0551F629FF001729FBB27F00DA4
S1130E20B11D639FAA27F00DB11DAA1F649F6627F9
S1130E30B00DA11D661F829F2227B00DA11D621F48
S1130E40739FB00DA11D621F839FA00D611D221F02
S1130E50749F3327A00D611D231F849F600D211DE6
S1130E60822F762F6A2F11249F5750409AF0F1F069
S1130E7088234AF0EE0FFF1FBB1F661F771F881FD2
S1130E8091505040A9F79E3F510580F00C945D07A6
S1130E900C94EA065F3FE4F3983ED4F38695779585
S1130EA06795B795F795E7959F5FC1F7FE2B880F78
S1130EB0911D9695879597F9089597F99F6780E80E
S1130EC070E060E008959FEF80EC089500240A9498
S1130ED01616170618060906089500240A94121611
S1130EE01306140605060895092E0394000C11F444
S1130EF0882352F0BB0F40F4BF2B11F460FF04C0F1
S1110F006F5F7F4F8F4F9F4F0895F894FFCF80
S10D0F0EAAAAAAAA010101400000EA
S9030000FC
